:1004000000100020A51300009509000095090000C8
:1004100000000000000000000000000000000000DC
:10042000000000000000000000000000950900002E
:100430000000000000000000950900009509000080
:100440009509000095090000950900009509000034
:100450009509000095090000950900009509000024
:1004600095090000090700009509000095090000A2
:100470009509000095090000950900009509000004
:1004800095090000950900009509000030B5002489
:100490001149124B0A681C701300403B58424341FB
:1004A00008000B710E4B083018600E489204036868
:1004B000920C9B0B9B031343036003680A4A13408F
:1004C000C622036080230948FF32855C5B422B43D0
:1004D00083540C6030BDC046180100200C01002080
:1004E000380B00203C0B0020FF3F00F00050004183
:1004F0000122014B1A7070470C010020F7B51B490F
:1005000000240E001A4D4A361A4F019684420BDA27
:100510002A880132D205D30D019A12889A421AD143
:100520000B0001224C331A70134A50311160134AE8
:10053000134B1168194080235B030B43136013684E
:1005400010499B0B9B031360F22240235200885CEE
:1005500003438B54F7BD5026B4468C4466462A8824
:10056000A65D2B80BE540134D0E7C04618010020A0
:100570006001002068080020480B00204C0B002080
:10058000FF3F00F0005000410122014B5A707047BC
:100590000C0100200122014B5A7070470C01002011
:1005A000014B18617047C04698010020014B58610B
:1005B0007047C04698010020F0B5C0228024022177
:1005C000434BD205640094601D78424E2943197054
:1005D000012154611C780F250C431C7003233478CF
:1005E00085B0AC4323433370202393613A4A1C3BCC
:1005F00014783A4E1C43147014780C431470302253
:1006000034782C4022433270354A364D146A2343E5
:100610001362354B354A5A8029602A68D207D20FB7
:10062000D3B2002BF9D132490B604B6031490B60DA
:100630004B6031490A7782790193511F022900D812
:1006400001924479002C3FD0023C631E9C4101275B
:1006500064030379C6785A1E934142789B01039341
:10066000037812021A43837836061B0413431E4391
:100670003101224801F036FE214B3F063B430290F8
:100680002B60039B31001C43019B1C481C43C0236F
:100690009B0223436B6001F025FE029B029A1B0123
:1006A000C31A5B08D204D20C5B0313439BB2AB8129
:1006B00002232A6813432B6004238022AB75114B5D
:1006C00092001A6005B0F0BD27008024A401C0E7A5
:1006D00048000060340000604500006032000060A7
:1006E0000004004000080042000C00400E400000E2
:1006F000580400206006002098010020006CDC02F5
:100700000420114000E100E0F7B524490B7EDAB285
:1007100001925B071BD522484B8B0E8D0268214C42
:1007200001329BB2B6B2224003D51F4C013A22439C
:1007300001325F07FF0F4B83BF019C0701D51024D7
:1007400027434468012594420CD1184B1D7701239F
:10075000019A1A4205D0164A5468106884420CD196
:100760000B75F7BD2B4004685B013B431B0204344F
:100770003343640003530260E9E7536804335B00CA
:100780009B5A9BB20B855368064901330B4003D536
:100790000549013B0B4301335360E2E70008004287
:1007A00060060020FF00008000FFFFFF980100208E
:1007B00058040020064B08304001185C802905D100
:1007C0004006400F431E9841C0B270474007F9E70A
:1007D00000500041074A53699B0B9B03536102225F
:1007E000054B1A729979823A0A439A711A7A9207DA
:1007F000FCD57047680A0020FF500041F8B51C4C3A
:100800000022236A8B4203DD3F320A4053425A41A1
:1008100002239C462434002904D1002A01D0FFF78A
:10082000D9FFF8BD0D00402900DD40250023AB4273
:100830001ADB104EAF0434617369BF0C9B0B9B0332
:100840003B43736173690C4F3B40736166460B4BCE
:100850001E7280269F7976423E439E711E7AB607AD
:10086000FCD5491B4019D6E7C65C1E550133DEE7AF
:1008700098010020680A0020FF3F00F0FF5000416F
:100880000A0010B5072907D1044C0100200001F02F
:10089000B5FC2000FFF790FE10BDC0460E01002001
:1008A000124A10B511006831536E088998421CD065
:1008B00010000124723004707C200B818343536646
:1008C0000B4B0C4A19600A2113689B0B9B030B43CB
:1008D0001360136808490B401360A6228023074960
:1008E000FF32885C5B4203438B5410BD98010020AB
:1008F000180B00201C0B0020FF3F00F000500041AF
:1009000000227C2110B5044B1A70044A13898B43D2
:100910001381FFF7C5FF10BD0A020020000200206E
:10092000030010B55A7800780849120202430020EB
:100930008A420AD1D9799A79090211431C2900DD2A
:100940001C210348FFF75AFF012010BD810600005B
:10095000D02500000300832110B55A7800781202D8
:100960000243890100208A4210D15A791979120272
:100970000A43072A0AD1D9799A7909021143AA2987
:1009800000DDAA210248FFF739FF012010BDC04653
:1009900070260000FEE7C023DB05082219000220B4
:1009A00010B543315A600C7820430424087008784D
:1009B000A0430870596A0A435A6210BDC022D2058A
:1009C00004231100022010B5423153600C782043FB
:1009D0000870087898430870516A0B43536210BD41
:1009E000C0230422DB059A6042331978023A0A4395
:1009F0001A707047C0230022DB055A601A000221DA
:100A00003F32107801430420117011788143117036
:100A10005A6A5A6270470649002800D1704702009E
:100A2000884200DD024AD300013BFDD1801AF3E782
:100A3000A08601000F22030C4340180A5840030906
:100A40004340034813401841012318407047C046F3
:100A500096690000F7B50F250540009028000F00AB
:100A6000FFF7E8FF6D00400105438120354C082168
:100A70002843666FB047FFF7A1FFE36FA06F984769
:100A8000314E03203368984702220500012838D1EF
:100A9000009B134223D03368202098470090FFF733
:100AA000C9FF3368019028009847019B834200D01A
:100AB0000735002F01D0009B3B60E36FA06F984784
:100AC000FFF78EFFC0230422DB055A617068E36FD5
:100AD0009847C0230422DB0528009A61FEBDE36F1E
:100AE000A06F9847FFF77CFF2021636F3868984715
:100AF000636F38680093FFF79DFF2900009B9847BC
:100B0000E0E7811EE36F914319D1317A002904D0C7
:100B10000099114201D021209847E36FA06F9847B8
:100B2000FFF75EFF337A002BD3D0009B9B07D0D416
:100B3000C0230422DB055A612120E36FC8E7A06FC0
:100B40002130C5E79801002018020020F8B50024E4
:100B500006000F002000094D6B69A34200DCF8BDC0
:100B6000EB68012B03D139003000FFF773FF022837
:100B7000F5D12B7C002BF2D10134ECE718020020D8
:100B8000030002221040134206D0044A0020D2681B
:100B9000012A01D11340D8B27047C0461802002084
:100BA000084B1A7E002A03D1DA69196A914203DCE4
:100BB000012200201A767047596A501CD861885C5F
:100BC000F9E7C046180200200A4B1A7E002A04D119
:100BD000DA69196A891A012903DC012200201A76D0
:100BE0007047586A81184978805C090202320843CC
:100BF000DA61F5E7180200200E4B30B51A7E002AA4
:100C000004D1DA69196A891A032903DC0122002058
:100C10001A7630BD5D6AA918C8788C78000624045D
:100C200020434978AC5C0902204304320843DA616E
:100C3000EFE7C04618020020084B10B51A7E002AC4
:100C400003D19A6AD96A914202DC01221A7610BD58
:100C5000196B541C9C628854F9E7C04618020020A6
:100C60000C4910B50B7E002B04D18B6ACA6AD21ACC
:100C7000032A02DC01230B7610BD0A6B040AD05450
:100C8000D21854700433040C000E9470D0708B6230
:100C9000F2E7C04618020020034B9A6A824201DD47
:100CA0001B6B19547047C0461802002010B5FFF79F
:100CB00077FF0400F02806D10120FFF7BDFF0120D7
:100CC000FFF7BAFF10BDFE2804D10120FFF7B4FFE3
:100CD0000220F5E7FF2807D10220FFF7ADFF4020F3
:100CE000FFF7AAFF0020EBE70020FFF7A5FF012C8C
:100CF00017D0022C17D0032C17D00323042CE1D1DA
:100D00000D4ADB00D218146A207800280FD1FFF7B3
:100D100093FF0A4B0120996A0239C9B2FFF7BCFF61
:100D2000D0E70023ECE70123EAE70223E8E70134F8
:100D3000FFF782FFE8E7C046D02500001802002038
:100D400010B5FFF72DFFFFF72BFF0020FFF774FF13
:100D500010BD70B5FFF724FF114C00281BD1FFF721
:100D60003FFEC02308200422DB050E4D9A619860E7
:100D70002978023A11432970002198610A48996044
:100D800005782A43027099610123E360E068C0B2EC
:100D9000FFF752FF70BD0023E3600128F6D1DEE7C4
:100DA00018020020430000603F00006010B5FFF70C
:100DB000F2FDFFF703FEFFF71DFE0020024BD86097
:100DC000FFF73AFF10BDC0461802002010B5FFF72C
:100DD000E7FE064C6060FFF7F7FE6061FFF7F4FE88
:100DE00060630020FFF728FF10BDC04618020020F6
:100DF000F0B5002089B0FFF71FFF0020FFF71CFFB0
:100E0000FFF7CEFE5C4BDB680393012B6DD1FFF740
:100E1000C7FE00231E001C0005900190019A002AC5
:100E200007D0554F3A7C002A03D13A7E0292002A1D
:100E30000DD0012C4ED1002E00D194E007A90E2038
:100E4000FFF784FE04000798FFF70AFF42E0FFF770
:100E5000A7FE0500002E1AD0FFF792FE07A9060094
:100E60002800002E00D10E20FFF770FE040001289C
:100E700030D10798FFF7F4FE002E08D0012200239E
:100E80000292019A029E013A039C0192C6E7022354
:100E90001D4257D02E000E331E401D4239D0FFF7A1
:100EA000ABFE04902800FFF76BFE002803D0002162
:100EB0002800FFF74BFE00272F4E736B9F4216DB77
:100EC000079AB36B1340049A9A4201D010231C4333
:100ED000012C35D0059B019A0120991AC9B2FFF760
:100EE000DBFE0220E1B2FFF7D7FE09B0F0BD28001B
:100EF00007A9FFF72BFE04000128E1D1079AB36B85
:100F00001340049A9A42DBD0337C002BD8D10137AE
:100F1000D2E72800FFF734FE002807D03100280070
:100F2000FFF714FE04000128A8D0D3E7280007A982
:100F3000FFF70CFE04000128CCD10798FFF790FEC4
:100F400000239EE7FFF758FE202307901D4201D0A3
:100F5000B863F5E7280007A9FFF7F8FD04000128AA
:100F6000B8D103008DE7002BB4D031000E20FFF77D
:100F7000EDFD0400AEE7C04618020020F0B50020E9
:100F800087B0FFF759FE0020FFF756FE0020FFF75D
:100F900053FEFFF705FE2C4BDB68012B3DD1FFF71D
:100FA00013FE0190002838D0FFF7FAFD0223040059
:100FB000060007001C40184231D0FFF7E1FD030096
:100FC00000275A1E93413C00019A0290D3180393C4
:100FD000019BBB4200D10E26300005A9FFF7B6FDEC
:100FE000050001280CD1029B002B01D0002F03D05B
:100FF0000598FFF735FE0134039B0137BB42E7D16B
:101000000120E1B2FFF748FE21120220C9B2FFF72A
:1010100043FE0320E9B2FFF73FFE07B0F0BDFFF744
:10102000EBFD05A905903800FFF790FD05000128AC
:10103000E6D1019B0134A342F1DC00210E20FFF731
:1010400085FD0500DCE7C0461802002010B5002031
:10105000FFF7F2FD10BD07B5FFF7A2FD074BFF201C
:10106000DB68012B07D1FFF7C7FD01A90190002024
:10107000FFF7F0FC0020FFF7DFFD07BD180200209E
:1010800010B5FFF7A1FDFFF7C6FC0020FFF7D4FD68
:1010900010BD10B50020FFF7CFFD0020FFF7CCFDFD
:1010A00010BD70B5FFF77CFD0400FFF779FD05006A
:1010B000FFF7A2FD03000120054205D0C022082150
:1010C000D205044225D091610220054205D0C022FC
:1010D0000421D20504421ED091612D0605D5C022FF
:1010E0000021D205240618D59161FA2080005843CA
:1010F000FFF791FCC022D205136A106A126A01221E
:10110000800810409040DB0813401843FFF794FD1F
:1011100070BD5161D8E75161DFE75161E5E710B576
:10112000FFF76AFD0C4B010098420FDC0B4801F001
:1011300065F90B4C0B490C4A0C4B9861DC675967FD
:101140000B4B00201A60FFF777FD10BD0020094C03
:1011500009490A4AF0E7C04600127A0000093D003A
:10116000010000203F0000208100002098010020A5
:10117000180200202D000020BD000020E500002006
:10118000F8B5FFF70DFD08260400002C03D1200060
:10119000FFF752FDF8BD2500082C00DD3500044B9B
:1011A000641B5F6FFFF7FCFC2900B847EDE7C04602
:1011B0009801002010B5FFF7F3FC0323054A034014
:1011C000013393674007044BC00F18720020FFF7EC
:1011D00033FD10BD9801002018020020F0B5244E08
:1011E00085B0F368012B04D0FF20FFF725FD05B083
:1011F000F0BD0020FFF720FDFFF7D2FC0023039095
:101200000193019A039B934202DCFFF7E9FBEEE7AF
:10121000FFF7C6FC3F243F230440184200D140247E
:10122000000611D5FFF7CAFB08272500082C00DDB2
:101230003D00336828009847C0B2FFF7FDFC641BEF
:10124000F3D1019B0133DBE7FFF7CAFB0827250039
:10125000082C00DD3D00074B641B5B6F0293FFF71A
:101260009FFC2900029B9847002CF0D1E9E7C0467B
:10127000180200209801002010B5FF20FFF7DCFCC9
:1012800010BD10B5FFF7F8FF10BD704770B5C179FC
:10129000837909021943437802781B021343344AC5
:1012A00093422ED007DC334A93421ED0324A9342F7
:1012B00020D0002070BD314A9342FAD1C3788278A1
:1012C0001B0213432E4E2F4A3CD1002100203065D3
:1012D0007165117801330B4313700F232A490A7883
:1012E0009A430C3B13430B7023E0254B274ADA63E8
:1012F0000120DFE7072900DD07212548FFF77EFAF7
:10130000F6E7C37882781B021343012418002149B1
:101310002040087000202049194A08600020002160
:101320009064D16410655165234205D01848FFF7D9
:1013300043F9FFF74FFADBE7184A14601368DB073D
:10134000FCD4F6E7164900208B4207D10021306516
:101350007165012113788B431370EAE71800B46DAF
:10136000F56D002124184D4134657565F1E7C046DF
:101370002122000021200000A121000021230000E3
:10138000180200204800006034000060810800005E
:101390000E01002058020020180100200008004221
:1013A000FFFF00000F4B1049002210B50F488B4281
:1013B00003D303331A1A920892000D4900F01EFF5E
:1013C0000C4B0D4900220D488B4203D303331A1AEC
:1013D00092089200002100F0BDFE094B094A93607B
:1013E00000F014F818010020FDFFFF1F000000208E
:1013F000C4280000680B00201501002018010020FF
:101400000004000000ED00E0FEE7C0460222EA4BC7
:10141000F0B55A60C2230021E848DB00E84A836047
:10142000E84D12682B688BB09205818400AF9B0E4B
:10143000920D1031C4680C42FCD0E3499B02134367
:10144000C162836293235B008384173BFF3BC268C6
:101450001A42FCD0DD4CDE4B636063785BB2002B3C
:10146000FBDB00260122DB4B94469E600020596086
:1014700000211A60D84B63329865D96561465A617C
:101480005A63D64ADE6091679161D5491E74D1676F
:10149000D4499E635167D44A5E601A601E72FFF79A
:1014A0007AFAFFF78BFAFFF7A5FA3200CF4BFB6011
:1014B00001361A605A600833102EF9D10123CC4945
:1014C000013E0A781A430A700621CA4A1078B043CE
:1014D0000143C948117001781943017060211078E7
:1014E0003040014311702022C449C8690243CA61D7
:1014F000C34AC44962800A7813430B70C14B9C787D
:10150000E407E40FE3B27B61002BF7D11F212B68C6
:10151000BC4EBD4D328D580B084080012A4002431D
:101520003285328D980C08408A4302433285328DD1
:10153000B6499B015B0F0A401B031343338580228E
:101540000123B34EA54D5B4230005200E1B22B6245
:1015500000F000FE7F22AB48012146620378A34ED3
:10156000134003700423027813430C220370038991
:101570009343043A1343038103898B43038110236C
:1015800002830100A348827A1343837202230A78FC
:101590001343A14A0B704470547090229F4B520029
:1015A0009C5420329C5420329C5420329C54203233
:1015B0009C5420329C549A4BE2B2B362994B3363F1
:1015C000994BF363994BAB6680239B02EB662B0030
:1015D00068331A81E3B26B66954872352C70FEF75A
:1015E000EBFF2120934B944AB360944B7361944B6F
:1015F0001B68BB61934B1B68FB61934B1B683B6291
:10160000924B1B687B627B69182142437918C95C45
:1016100001334A40102BF7D10F2100238C466E4C2A
:101620008B488C4D16009900CE4031006646314003
:10163000695C19540133082BF4D10023FA22037298
:101640000023802122676367C0240223E4056848E1
:101650004904A16002781A430270616180216648E2
:101660008904A16002781A430270A16180217A4A3C
:101670004905616010780343137004231078984380
:101680001070606A08436062A16111780B431370A7
:10169000504B514D1B68DB0307D5AA6DEB6D012044
:1016A000002112184B41AA65EB65AA6DEB6D696FBD
:1016B000994227D802D1296F914223D8FA200021DC
:1016C00012184B412A676B672B0078331A788023F6
:1016D0009B04002A00D1ECE0C022D205D3612B008C
:1016E000002278331A702B0079331A7880235B0438
:1016F000002A00D1E1E0C022D205D3612B000022F4
:1017000079331A703F4B9B8B1B0744D508233D4808
:10171000902283837833837200233E4952004B70BA
:101720008354203283542032835420328354203215
:101730008354203283542032835411334B708A797E
:101740002F3313438B718023C0204A795B421343AC
:101750004B712F4B0C005A69404980050A400243E7
:101760005A612A007C321A605A680A401043586055
:1017700059683B4A1140802252030A435A605A6812
:10178000920B92035A601023A27A1343A37201238F
:10179000A27A1343A3721F4B1B7ADB06DC0F002BCC
:1017A00000DBC7E22E007C360C4BF4881C62184B21
:1017B0005B689B049B0C55E0004000410008004022
:1017C000286080002460800080BB0000000C004086
:1017D0000007210010E000E018020020980100201E
:1017E000010000203F00002081000020D8030020DD
:1017F000580000603C000060590000600004004098
:1018000006400000005000413FF8FFFFFF8FFFFF40
:10181000680A0020FF5000411F5100412050004144
:1018200001090000F1040000FD0400000120000097
:101830000E0100209505000005150000A10500001F
:101840000CA0800040A0800044A0800048A0800040
:1018500078020020382800005C000060FFFFFF8F46
:10186000FF3F00F0082B00D01FE13388CB4A9342A2
:1018700000D11FE23BDC0222FF32934200D119E289
:10188000013293422DDA822B00D1DBE122DC803B56
:101890000024012B00D8D0E1C14E2800A3009B59A1
:1018A0007C309847002800D014E10134032CF4D197
:1018B000FBE0C022D205936111E72A004032127882
:1018C000002A03D0C022D205936117E7C022D205B7
:1018D000536113E780225200934200D1E5E00024D7
:1018E000DAE7934200D1E8E1C0229200F4E7D02287
:1018F000D200934200D1CFE011DCAA4A934200D13A
:10190000B9E1FF32FF329342E9D1FEF763FF802352
:1019100072885B421343A44ADBB29372DAE08822F6
:101920001201934200D185E180329342D7D19F4C7E
:1019300073882370FEF74EFF2378002B00D1C9E097
:1019400082239B487B614578052D53D103237F2457
:10195000C17802791940437986781B0213439B05AD
:10196000002234409B0D082B16D90132102B13D9BD
:101970000132202B10D90132402B0DD90132802B9E
:101980000AD9FC3294462A00634505D9FC32FF325D
:101990009A42924152420632230007250131083310
:1019A00076B2294064012A405B01002E00DB27E16A
:1019B0007D4E6935F65C0901AE437E4D0E43AC4663
:1019C000A44465467849CE540221AE7A0E43AE72E5
:1019D000754E9B191E793143197180211E79494238
:1019E00031431971744909194B68744C120723402B
:1019F00013434B6003787A69C018D21A7A61A2D176
:101A00006F4B80211A009C46012353707A696D4BFD
:101A10006D4C1A615A616D4B6D4A49031A626D4AE9
:101A2000A225DA616C4B6D4A5F4E1A645A6C6D00E8
:101A300022400A435A645A6C920B92035A64402221
:101A4000705D10437055664820351866586E20400A
:101A500008435866586E800B80035866705D1043CB
:101A600070551E005F4DE036E43335601D685E48FA
:101A700025402943196019684B4E890B8903196069
:101A8000F2235B00F15C0A43F2546246E43BFF3B05
:101A900013707B6903601DE073881D0A032D47D016
:101AA00009D8012D0FD0022D3CD0202341498A793D
:101AB00013438B711AE00F2DF7D12100212C00DD8B
:101AC00021214A4804E02100122C00DD122148485F
:101AD000FEF794FE404A374953689B0B9B035360C3
:101AE00040234A7913434B7101230B720122354B7A
:101AF00052421A6210232F4A137201242A4BFD68A6
:101B00001B8C7C619EB2002B00D02DE12C4B7B60A6
:101B10005B78002B00D064E180240021324A354EEE
:101B2000A4003DE22100822C00DD82212048CFE785
:101B3000DBB2002B05D12100042C00DD04212E484E
:101B4000C6E7062BB1D86A46BA602C4A9B00D21869
:101B5000536D18007B6100F097FB431C0100684641
:101B60005B00DA1DD208D200821A95466846002230
:101B700045700370851C914208DC21009C4200DD09
:101B80001900FEF73BFEBB689D46A3E77E69B65C85
:101B900001322E7000266E700235ECE70103000062
:101BA000642600000203000000500041D40200201F
:101BB0001C270000FF500041780A0020FFFFFF8F24
:101BC0000C01002098010020FF3F00F0D803002006
:101BD00089050000AD050000680A0020D802002039
:101BE0001803002068010020180100204026000092
:101BF0000C2600006201002020260000D0250000F5
:101C00000725C74EF65CAE43C64D0E43AC46A44412
:101C10006546C349CE540121AE7A0E43AE72C04E22
:101C20009B191E793143197140215E7931435971F5
:101C3000BD49D8E60121BD484AE73C83182302216B
:101C4000F81845E77F248023B5882C401D402900E3
:101C50002000FEF7AFFD002800D126E7B04B083486
:101C60006401E418A379002D03D09B06DB0F3B83AE
:101C7000E4E7DB06FAE77388B588002B00D014E7A9
:101C80002C007F331C401D4200D10EE701331D4064
:101C900029002000FEF78EFD002800D105E7A04BAB
:101CA00008346401E41862792023002D00D1102348
:101CB00013436371FEF78EFD0CE77388B588002B24
:101CC00000D0F2E62C007F331C401D4200D1ECE630
:101CD00001331D4029002000FEF76CFD002800D1D3
:101CE000E3E68F4B08346401E3189A79002D11D094
:101CF0009206DFD5202219790A431A71DA79520641
:101D0000D8D58B4AA4184022227019793E3A0A434A
:101D10001A71CFE7D206CDD5102219790A431A716C
:101D2000DA799206C6D5824AA4182022227019793F
:101D30001F3AECE77B4B1B7ADB0700D4DDE6EB6B4D
:101D4000002B09D02800784A7C3051688904890C1E
:101D50009847EC63FEF73EFD402372498A791343AE
:101D60008B7101230B72C8E66D4B6201D3187B6047
:101D70006C4BD018037AD9B2B9607969A1408E430F
:101D800079690B4212D06B49531859799C4640230C
:101D90001943634659717B690372634B9B185868FA
:101DA000EB688004800C002B00D098470221BB68B0
:101DB0000B420ED05F4A63019B1880221879524271
:101DC00002431A717B68FF331972AB68002B00D095
:101DD00098470134082C00D198E60835002EC3D16D
:101DE00094E60026544B1D69B5425AD0534C2A0044
:101DF000210053481E6100F001FA4B4A514B146414
:101E0000516C4748194080235B030B435364536C68
:101E10009B0B9B035364A22240235200815C0B4323
:101E20008354BE60484C464B25626362474B002595
:101E30007B6123634023E561E362A5622576257417
:101E4000FEF7AEFE0600FEF7F7FE414AEB009B18D8
:101E500019688E4247D15B689847BA68A06A324BCE
:101E60003849012A4ED11A007D69903215609433A9
:101E70001A688004920B800C920302431A601A685D
:101E80000A401A60862280232548FF32815C5B422B
:101E90000B43835400237A687834537001332370E2
:101EA0003AE65D69002D00D136E62A4C2A00210071
:101EB00023485E6100F0A2F91B4A224B1466516E62
:101EC0001748194080235B030B435366536E9B0BEB
:101ED0009B035366B22240235200815C0B43835420
:101EE0000123BB609EE70135132DAFD1803E1F2E2D
:101EF00003D8FF20FEF7A0FEAFE7FF210020FEF78A
:101F0000CBFEAAE740207A691A635A6B920B9203C0
:101F100002435A635A6B0A405A632622B3E7C0460B
:101F200000500041FF500041680A0020D402002008
:101F3000075000410051004198010020D8020020C4
:101F400058030020FF3F00F01802002098030020F3
:101F5000A0270000180300201B886D48C35C6D4853
:101F60007B616D4B1B680133034003D56B48013B1C
:101F7000034301336A48C46767484568AB421DD0D4
:101F800001687D69043149000D5201210360654BF0
:101F90009975654B1C6033885B18DB05DB0D33805E
:101FA000130010004A3348301D8800888542D3D181
:101FB00000290AD001215D4B197006E0002902D0EA
:101FC00001215A4B1970584B1C604C321378002B6E
:101FD00004D00121554B197000231370544B1B780A
:101FE0007B61002B38D080224D4B9200DA67514B39
:101FF000197FCAB2002974D0002119778021C90144
:1020000039618020484980000860002A24D00A25D0
:1020100000263A691412484A906DD16D40197141F9
:102020009064D164012179321170002C09D05A6E6C
:1020300022435A6672331B78002BD4D1FEF730FC52
:10204000D1E73E4B19684A1C1A605B18396919724E
:10205000402AC8D1FEF71AFA374C226D636D110081
:10206000194316D0E16D994203D812D1A36D934262
:102070000FD90123324A11780B4313700F233149D2
:102080000A789A430C3B13430B700022002322650D
:102090006365A26CE36C1100194313D0E16D9942A2
:1020A00003D80FD1A36D93420CD9244B1A79002A7F
:1020B00002D11B68002B01D0FEF7E8F900220023B3
:1020C000A264E364C023DB051B6ADB0001D5FFF7D4
:1020D000DFFABFF34F8F1C4B1C4ADA60BFF34F8F00
:1020E000FEE71B494C68086884428AD04A68094860
:1020F00004325200525A92B23A614A6801320240A6
:1021000003D50648013A024301324A607A6978E70A
:1021100068080020FF0000805804002000FFFFFF37
:1021200004E100E00008004200E100E0910200202C
:102130000C01002098010020180200201801002046
:10214000480000603400006000ED00E00400FA0583
:1021500060060020F0B50500830749D0541E002A10
:1021600045D003000326CAB202E00135013C3ED34C
:1021700001332A703342F8D1032C30D9FF220A40B0
:102180001502AD182A04AD180F2C34D92700103FC2
:102190003F093E01B4461E001A0010366644156021
:1021A00055609560D56010329642F8D101373F01F5
:1021B000DB190F270C22274022403C00002A0ED0BA
:1021C0003E1FB608B400A4461A001C1D644420C279
:1021D000A242FCD103240136B6009B193C40002CDE
:1021E00005D0C9B21C19197001339C42FBD1F0BD56
:1021F00003001400C0E72700E2E7C046F0B5050081
:102200000F2A31D903273E000D430C0003002E4056
:102210002F4234D11500103D2D09AC462F013F1837
:1022200065685D60A5689D60E568DD6025681034BF
:102230001D601D001033BD42F2D165460F230C24F2
:1022400001352D0149191340451914421AD0043B98
:102250009B0801339B008C59AC5104369E42FAD145
:102260000323AD1989191A40561E002A06D00023EF
:10227000CC5C1A00EC5401339642F9D1F0BD050054
:10228000561EF4E71A00EFE710B583070AD00300E3
:10229000032102E001330B4205D01A78002AF9D15C
:1022A000181A10BD030019680C4A0D4C8A188A438D
:1022B00022420FD15968094A04338A188A432242BC
:1022C00008D15968054A04338A188A432242F1D05A
:1022D00000E001331A78002AFBD1E1E7FFFEFEFEA1
:1022E00080808080002243088B4274D303098B4294
:1022F0005FD3030A8B4244D3030B8B4228D3030CD6
:102300008B420DD3FF22090212BA030C8B4202D377
:102310001212090265D0030B8B4219D300E0090A9F
:10232000C30B8B4201D3CB03C01A5241830B8B42A8
:1023300001D38B03C01A5241430B8B4201D34B0391
:10234000C01A5241030B8B4201D30B03C01A5241F6
:10235000C30A8B4201D3CB02C01A5241830A8B427B
:1023600001D38B02C01A5241430A8B4201D34B0264
:10237000C01A5241030A8B4201D30B02C01A5241C8
:10238000CDD2C3098B4201D3CB01C01A524183097C
:102390008B4201D38B01C01A524143098B4201D3B6
:1023A0004B01C01A524103098B4201D30B01C01AE1
:1023B0005241C3088B4201D3CB00C01A524183085B
:1023C0008B4201D38B00C01A524143088B4201D388
:1023D0004B00C01A5241411A00D2014652411046E8
:1023E0007047FFE701B5002000F006F802BDC046C7
:1023F0000029F7D076E770477047C04603460B4385
:102400007FD4002243088B4274D303098B425FD3ED
:10241000030A8B4244D3030B8B4228D3030C8B4219
:102420000DD3FF22090212BA030C8B4202D31212FF
:10243000090265D0030B8B4219D300E0090AC30BD4
:102440008B4201D3CB03C01A5241830B8B4201D381
:102450008B03C01A5241430B8B4201D34B03C01A6A
:102460005241030B8B4201D30B03C01A5241C30AE2
:102470008B4201D3CB02C01A5241830A8B4201D353
:102480008B02C01A5241430A8B4201D34B02C01A3D
:102490005241030A8B4201D30B02C01A5241CDD2E2
:1024A000C3098B4201D3CB01C01A524183098B422D
:1024B00001D38B01C01A524143098B4201D34B0116
:1024C000C01A524103098B4201D30B01C01A524179
:1024D000C3088B4201D3CB00C01A524183088B4200
:1024E00001D38B00C01A524143088B4201D34B00E9
:1024F000C01A5241411A00D201465241104670475B
:102500005DE0CA0F00D04942031000D3404253405F
:1025100000229C4603098B422DD3030A8B4212D31F
:10252000FC22890112BA030A8B420CD38901921151
:102530008B4208D3890192118B4204D389013AD08E
:10254000921100E08909C3098B4201D3CB01C01A63
:10255000524183098B4201D38B01C01A5241430976
:102560008B4201D34B01C01A524103098B4201D364
:102570000B01C01A5241C3088B4201D3CB00C01AD1
:10258000524183088B4201D38B00C01A5241D9D2E9
:1025900043088B4201D34B00C01A5241411A00D26A
:1025A0000146634652415B10104601D34042002B66
:1025B00000D54942704763465B1000D3404201B5E5
:1025C0000020FFF719FF02BD0029F8D016E7704779
:1025D00005010900A101150026FF007508954009B5
:1025E0000081827508954009009182C001000000B9
:1025F00049280000020000005628000003000000E7
:102600007802002004000000782800001201100267
:10261000EF0201408628660000010102030100006C
:1026200004030904000000004928000056280000A7
:10263000780200207E28000093280000A8280000CF
:10264000050F2100011C100500DF60DDD88945C79A
:102650004C9CD2659D9E648A9F00000306AA0020C0
:1026600000000000210900008D1200005509000043
:102670000A00000000000306AA0008000200010092
:10268000A0001400030057494E55534200000000BB
:102690000000000000008400040007002A0044003D
:1026A0006500760069006300650049006E007400F3
:1026B0006500720066006100630065004700550018
:1026C000490044007300000050007B0043004400B8
:1026D0004200330042003500410044002D0032002A
:1026E0003900330042002D0034003600360033003C
:1026F0002D0041004100330036002D003100410023
:102700004100450034003600340036003300370005
:10271000370036007D000000000000000902820042
:1027200004010080FA0904000002030000040921EA
:1027300011010001221C000705810340000107056B
:1027400002034000010904010002FF000005070523
:10275000030240000007058402400000080B02024B
:102760000202000609040200010202000005240022
:1027700010010424020605240102030524060203B5
:102780000705850340000109040300020A00000058
:102790000705860240000007050702400000000010
:1027A00000000000AD0C000001000000410D000021
:1027B00002000000530D000003000000AD0D0000FA
:1027C00004000000CD0D000005000000F10D000028
:1027D000060000007D0F0000070000004D10000003
:1027E00008000000571000000900000081100000E0
:1027F0000A0000009310000010000000A310000069
:10280000110000001F1100001200000081110000E3
:1028100013000000B51100001D000000DD110000D4
:10282000140000008312000015000000791200005F
:10283000160000008B120000303132333435363749
:102840003839414243444546005365656564205329
:10285000747564696F0053656565642053747564AD
:10286000696F205849414F206E7266353420434DC0
:102870005349532D44415000322E302E3000434DE9
:102880005349532D44415020763120416461707486
:10289000657200434D5349532D44415020763220F8
:1028A00041646170746572005669727475616C2060
:0C28B000434F4D2D506F727400FFFFFF6E
:0428BC00F8B5C04665
:0428C000F8B5C04661
:1028C400C022082110B5084BD2059B69002800D10D
:1028D40010BD1C005161013CFDD11C009161013C03
:1028E400FDD10138F2E7C04698010020C023082238
:1028F400DB05013800D270475A619A61F9E70F4B42
:10290400F0B59C6901239C46C023002204250826B7
:10291400DB058A4200DBF0BD674638420BD09D617F
:1029240027005E61013FFDD127009E61013FFDD17B
:1029340040080132EDE75D61F2E7C04698010020EE
:102944000022F0B5C0240100082610000A4BE4055B
:102954009D698A4200DBF0BD2B006661013BFDD11D
:10296400236A2F00A661013FFDD101279B083B404C
:102974009340D2191843ECE798010020C02370B5A6
:102984000022012604240825DB058A4200DB70BDF1
:10299400304205D09C615D6140089D610132F4E7DD
:1029A4005C61F8E7002270B5C0240100082510001E
:1029B4000126E4058A4200DB70BD6561236AA561D6
:1029C4009B083340934001321843F3E7010100C2EE
:0829D4000100000008FFFFFFF5
:04000003000013A541
:00000001FF
